:020000040800F2
:1000000000500020C17F0008ED7E0008F37E00084C
:10001000F97E0008FF7E0008057F00080000000050
:100020000000000000000000000000000B7F00083E
:10003000177F000800000000237F00082F7F0008C2
:100040000980000809800008098000083D7F000839
:100050000980000809800008517F00085F7F0008C0
:10006000098000086D7F00080980000809800008E9
:10007000098000080980000809800008098000083C
:10008000098000080980000809800008098000082C
:10009000098000080980000809800008098000081C
:1000A000098000087D7F0008098000080980000899
:1000B00009800008098000080980000809800008FC
:1000C00009800008917F0008098000080980000865
:1000D00009800008098000080980000809800008DC
:1000E000A57F0008098000080980000800000000C2
:1000F0000000000000000000000000000000000000
:0C01000000000000000000005FF808F1A3
:1001100010B5054C237833B9044B13B10448AFF341
:1001200000800123237010BD240100200000000086
:100130002883000808B5034B1BB103490348AFF3FC
:10014000008008BD0000000028010020288300086E
:1001500081F0004102E000BF83F0004330B54FEA78
:1001600041044FEA430594EA050F08BF90EA020FE5
:100170001FBF54EA000C55EA020C7FEA645C7FEA78
:10018000655C00F0E2804FEA5454D4EB5555B8BF9B
:100190006D420CDD2C4480EA020281EA030382EA0C
:1001A000000083EA010180EA020281EA0303362D9E
:1001B00088BF30BD11F0004F4FEA01314FF4801C71
:1001C0004CEA113102D0404261EB410113F0004F83
:1001D0004FEA03334CEA133302D0524263EB43033A
:1001E00094EA050F00F0A780A4F10104D5F1200ED8
:1001F0000DDB02FA0EFC22FA05F2801841F1000133
:1002000003FA0EF2801843FA05F359410EE0A5F106
:1002100020050EF1200E012A03FA0EFC28BF4CF037
:10022000020C43FA05F3C01851EBE37101F00045ED
:1002300007D54FF0000EDCF1000C7EEB00006EEBFA
:100240000101B1F5801F1BD3B1F5001F0CD3490884
:100250005FEA30004FEA3C0C04F101044FEA4452DB
:1002600012F5800F80F09A80BCF1004F08BF5FEA62
:10027000500C50F1000041EB045141EA050130BD42
:100280005FEA4C0C404141EB010111F4801FA4F1E5
:100290000104E9D191F0000F04BF01460020B1FA3A
:1002A00081F308BF2033A3F10B03B3F120020CDA72
:1002B0000C3208DD02F1140CC2F10C0201FA0CF050
:1002C00021FA02F10CE002F11402D8BFC2F1200CB5
:1002D00001FA02F120FA0CFCDCBF41EA0C0190406B
:1002E000E41AA2BF01EB0451294330BD6FEA0404B4
:1002F0001F3C1CDA0C340EDC04F11404C4F120029F
:1003000020FA04F001FA02F340EA030021FA04F3B0
:1003100045EA030130BDC4F10C04C4F1200220FA07
:1003200002F001FA04F340EA0300294630BD21FA45
:1003300004F0294630BD94F0000F83F4801306BF0B
:1003400081F480110134013D4EE77FEA645C18BFFF
:100350007FEA655C29D094EA050F08BF90EA020F96
:1003600005D054EA000C04BF1946104630BD91EA8E
:10037000030F1EBF0021002030BD5FEA545C05D191
:100380004000494128BF41F0004130BD14F58004D0
:100390003CBF01F5801130BD01F0004545F0FE4144
:1003A00041F470014FF0000030BD7FEA645C1ABF79
:1003B000194610467FEA655C1CBF0B46024650EAB0
:1003C000013406BF52EA033591EA030F41F40021DC
:1003D00030BD00BF90F0000F04BF0021704730B562
:1003E0004FF4806404F132044FF000054FF0000137
:1003F00050E700BF90F0000F04BF0021704730B5F8
:100400004FF4806404F1320410F0004548BF4042CC
:100410004FF000013EE700BF42004FEAE2014FEA21
:1004200031014FEA02701FBF12F07F4393F07F4FFC
:1004300081F06051704792F0000F14BF93F07F4F2E
:10044000704730B54FF4607401F0004521F0004171
:1004500020E700BF50EA010208BF704730B54FF0F7
:1004600000050AE050EA010208BF704730B511F0FC
:10047000004502D5404261EB41014FF4806404F134
:1004800032045FEA915C3FF4DCAE4FF003025FEAB6
:10049000DC0C18BF03325FEADC0C18BF033202EB3E
:1004A000DC02C2F1200300FA03FC20FA02F001FA98
:1004B00003FE40EA0E0021FA02F11444C1E600BF37
:1004C00070B54FF0FF0C4CF4E06C1CEA11541DBFEA
:1004D0001CEA135594EA0C0F95EA0C0F00F0DEF8B5
:1004E0002C4481EA030621EA4C5123EA4C5350EA9A
:1004F000013518BF52EA033541F4801143F48013EB
:1005000038D0A0FB02CE4FF00005E1FB02E506F07B
:100510000042E0FB03E54FF00006E1FB03569CF0D0
:10052000000F18BF4EF0010EA4F1FF04B6F5007FD6
:1005300064F5407404D25FEA4E0E6D4146EB060648
:1005400042EAC62141EA55514FEAC52040EA5E50D1
:100550004FEACE2EB4F1FD0C88BFBCF5E06F1ED87B
:10056000BEF1004F08BF5FEA500E50F1000041EBB2
:10057000045170BD06F0004646EA010140EA02005F
:1005800081EA0301B4EB5C04C2BFD4EB0C0541EA81
:10059000045170BD41F480114FF0000E013C00F396
:1005A000AB8014F1360FDEBF002001F0004170BDBA
:1005B000C4F10004203C35DA0C341BDC04F11404D3
:1005C000C4F1200500FA05F320FA04F001FA05F25F
:1005D00040EA020001F0004221F0004110EBD3702C
:1005E00021FA04F642EB06015EEA430E08BF20EA58
:1005F000D37070BDC4F10C04C4F1200500FA04F3FB
:1006000020FA05F001FA04F240EA020001F000418C
:1006100010EBD37041F100015EEA430E08BF20EAFF
:10062000D37070BDC4F1200500FA05F24EEA020E47
:1006300020FA04F301FA05F243EA020321FA04F076
:1006400001F0004121FA04F220EA020000EBD3702D
:100650005EEA430E08BF20EAD37070BD94F0000F2D
:100660000FD101F00046400041EB010111F4801F61
:1006700008BF013CF7D041EA060195F0000F18BF12
:10068000704703F00046520043EB030313F4801F4E
:1006900008BF013DF7D043EA0603704794EA0C0F08
:1006A0000CEA135518BF95EA0C0F0CD050EA41061E
:1006B00018BF52EA4306D1D181EA030101F000419B
:1006C0004FF0000070BD50EA410606BF10461946C3
:1006D00052EA430619D094EA0C0F02D150EA0136CF
:1006E00013D195EA0C0F05D152EA03361CBF104610
:1006F00019460AD181EA030101F0004141F0FE41AF
:1007000041F470014FF0000070BD41F0FE4141F432
:10071000780170BD70B54FF0FF0C4CF4E06C1CEA32
:1007200011541DBF1CEA135594EA0C0F95EA0C0FE7
:1007300000F0A7F8A4EB050481EA030E52EA0335A2
:100740004FEA013100F088804FEA03334FF08055C3
:1007500045EA131343EA12634FEA022245EA1115F0
:1007600045EA10654FEA00260EF000419D4208BFA1
:10077000964244F1FD0404F5407402D25B084FEA4E
:100780003202B61A65EB03055B084FEA32024FF4FA
:1007900080104FF4002CB6EB020E75EB030E22BF57
:1007A000B61A754640EA0C005B084FEA3202B6EB17
:1007B000020E75EB030E22BFB61A754640EA5C00C6
:1007C0005B084FEA3202B6EB020E75EB030E22BF56
:1007D000B61A754640EA9C005B084FEA3202B6EB57
:1007E000020E75EB030E22BFB61A754640EADC0016
:1007F00055EA060E18D04FEA051545EA16754FEA78
:1008000006164FEAC30343EA52734FEAC2025FEA95
:100810001C1CC0D111F4801F0BD141EA00014FF024
:1008200000004FF0004CB6E711F4801F04BF0143F5
:100830000020B4F1FD0C88BFBCF5E06F3FF6AFAE11
:10084000B5EB030C04BFB6EB020C5FEA500C50F1A1
:10085000000041EB045170BD0EF0004E4EEA113124
:1008600014EB5C04C2BFD4EB0C0541EA045170BD2B
:1008700041F480114FF0000E013C90E645EA060E6F
:100880008DE60CEA135594EA0C0F08BF95EA0C0F9D
:100890003FF43BAF94EA0C0F0AD150EA01347FF4E5
:1008A00034AF95EA0C0F7FF425AF104619462CE7BC
:1008B00095EA0C0F06D152EA03353FF4FDAE10461F
:1008C000194622E750EA410618BF52EA43067FF470
:1008D000C5AE50EA41047FF40DAF52EA43057FF400
:1008E000EBAE12E74FF0FF3C06E000BF4FF0010C0B
:1008F00002E000BF4FF0010C4DF804CD4FEA410C6F
:100900007FEA6C5C4FEA430C18BF7FEA6C5C1BD03B
:1009100001B050EA410C0CBF52EA430C91EA030FBC
:1009200002BF90EA020F0020704710F1000F91EA19
:10093000030F58BF994208BF90422CBFD8176FEAE7
:10094000E37040F0010070474FEA410C7FEA6C5CB5
:1009500002D150EA013C07D14FEA430C7FEA6C5CBC
:10096000D6D152EA033CD3D05DF8040B704700BFE8
:100970008446104662468C461946634600E000BF36
:1009800001B5FFF7B7FF002848BF10F1000F01BD08
:100990004DF808EDFFF7F4FF0CBF012000205DF8D3
:1009A00008FB00BF4DF808EDFFF7EAFF34BF012058
:1009B00000205DF808FB00BF4DF808EDFFF7E0FFF1
:1009C00094BF012000205DF808FB00BF4DF808ED42
:1009D000FFF7CEFF94BF012000205DF808FB00BFA9
:1009E0004DF808EDFFF7C4FF34BF012000205DF88B
:1009F00008FB00BF4FEA410C7FEA6C5C02D150EA71
:100A0000013C0AD14FEA430C7FEA6C5C02D152EA06
:100A1000033C02D14FF0000070474FF001007047D7
:100A20004FEA4102B2F1E04324BFB3F5001CDCF110
:100A3000FE5C0DD901F0004C4FEAC0024CEA507048
:100A4000B2F1004F40EB830008BF20F00100704777
:100A500011F0804F21D113F13872BCBF01F000407A
:100A6000704741F480114FEA5252C2F11802C2F1AC
:100A7000200C10FA0CF320FA02F018BF40F001002D
:100A80004FEAC1234FEAD32303FA0CFC40EA0C00DF
:100A900023FA02F34FEA4303CCE77FEA625307D11C
:100AA00050EA01331EBF4FF0FE4040F44000704753
:100AB00001F0004040F0FE4040F40000704700BFED
:100AC00080F0004002E000BF81F0004142001FBF03
:100AD0005FEA410392EA030F7FEA226C7FEA236C0C
:100AE0006AD04FEA1262D2EB1363C1BFD218414001
:100AF00048404140B8BF5B42192B88BF704710F097
:100B0000004F40F4000020F07F4018BF404211F039
:100B1000004F41F4000121F07F4118BF494292EAA1
:100B2000030F3FD0A2F1010241FA03FC10EB0C00CD
:100B3000C3F1200301FA03F100F0004302D549425A
:100B400060EB4000B0F5000F13D3B0F1807F06D307
:100B500040084FEA310102F10102FE2A51D2B1F1FF
:100B6000004F40EBC25008BF20F0010040EA0300F4
:100B70007047490040EB000010F4000FA2F10102A1
:100B8000EDD1B0FA80FCACF1080CB2EB0C0200FA2B
:100B90000CF0AABF00EBC25052421843BCBFD04079
:100BA0001843704792F0000F81F4000106BF80F4F3
:100BB00000000132013BB5E74FEA41037FEA226CB6
:100BC00018BF7FEA236C21D092EA030F04D092F081
:100BD000000F08BF0846704790EA010F1CBF0020B5
:100BE000704712F07F4F04D1400028BF40F0004012
:100BF000704712F100723CBF00F50000704700F032
:100C0000004343F0FE4040F4000070477FEA226258
:100C100016BF08467FEA23630146420206BF5FEA29
:100C2000412390EA010F40F4800070474FF0000329
:100C300004E000BF10F0004348BF40425FEA000CF0
:100C400008BF704743F0964301464FF000001CE098
:100C500050EA010208BF70474FF000030AE000BFEE
:100C600050EA010208BF704711F0004302D540422C
:100C700061EB41015FEA010C02BF8446014600209E
:100C800043F0B64308BFA3F18053A3F50003BCFAB9
:100C90008CF2083AA3EBC25310DB01FA02FC634466
:100CA00000FA02FCC2F12002BCF1004F20FA02F26D
:100CB00043EB020008BF20F00100704702F1200260
:100CC00001FA02FCC2F1200250EA4C0021FA02F2C1
:100CD00043EB020008BF20EADC7070474FF0FF0CC6
:100CE0001CEAD0521EBF1CEAD15392EA0C0F93EAC1
:100CF0000C0F6FD01A4480EA010C400218BF5FEA63
:100D000041211ED04FF0006343EA501043EA5111D5
:100D1000A0FB01310CF00040B1F5000F3EBF4900CF
:100D200041EAD3715B0040EA010062F17F02FD2AD3
:100D30001DD8B3F1004F40EBC25008BF20F00100B6
:100D4000704790F0000F0CF0004C08BF49024CEACD
:100D5000502040EA51207F3AC2BFD2F1FF0340EA5F
:100D6000C250704740F400004FF00003013A5DDCD0
:100D700012F1190FDCBF00F000407047C2F1000211
:100D8000410021FA02F1C2F1200200FA02FC5FEAFE
:100D9000310040F1000053EA4C0308BF20EADC7048
:100DA000704792F0000F00F0004C02BF400010F4BA
:100DB000000F013AF9D040EA0C0093F0000F01F067
:100DC000004C02BF490011F4000F013BF9D041EA89
:100DD0000C018FE70CEAD15392EA0C0F18BF93EA8B
:100DE0000C0F0AD030F0004C18BF31F0004CD8D1B5
:100DF00080EA010000F00040704790F0000F17BF3C
:100E000090F0004F084691F0000F91F0004F14D081
:100E100092EA0C0F01D142020FD193EA0C0F03D1D9
:100E20004B0218BF084608D180EA010000F00040DC
:100E300040F0FE4040F40000704740F0FE4040F4B7
:100E4000400070474FF0FF0C1CEAD0521EBF1CEA56
:100E5000D15392EA0C0F93EA0C0F69D0A2EB030274
:100E600080EA010C49024FEA402037D04FF080530E
:100E700043EA111143EA10130CF000408B4238BFD3
:100E80005B0042F17D024FF4000C8B4224BF5B1AE1
:100E900040EA0C00B3EB510F24BFA3EB510340EA2F
:100EA0005C00B3EB910F24BFA3EB910340EA9C00DD
:100EB000B3EBD10F24BFA3EBD10340EADC001B014D
:100EC00018BF5FEA1C1CE0D1FD2A3FF650AF8B42F1
:100ED00040EBC25008BF20F0010070470CF0004CFE
:100EE0004CEA50207F32C2BFD2F1FF0340EAC25029
:100EF000704740F400004FF00003013A37E792F0EA
:100F0000000F00F0004C02BF400010F4000F013A47
:100F1000F9D040EA0C0093F0000F01F0004C02BF42
:100F2000490011F4000F013BF9D041EA0C0195E7AB
:100F30000CEAD15392EA0C0F08D142027FF47DAF44
:100F400093EA0C0F7FF470AF084676E793EA0C0F34
:100F500004D14B023FF44CAF08466EE730F0004C32
:100F600018BF31F0004CCAD130F000427FF45CAFC2
:100F700031F000437FF43CAF5FE700BF4FF0FF3C30
:100F800006E000BF4FF0010C02E000BF4FF0010C83
:100F90004DF804CD4FEA40024FEA41037FEA226C4C
:100FA00018BF7FEA236C11D001B052EA530C18BF6E
:100FB00090EA010F58BFB2EB030088BFC81738BFD3
:100FC0006FEAE17018BF40F0010070477FEA226CC1
:100FD00002D15FEA402C05D17FEA236CE4D15FEABD
:100FE000412CE1D05DF8040B704700BF84460846F1
:100FF0006146FFE70FB5FFF7C9FF002848BF10F1B2
:10100000000F0FBD4DF808EDFFF7F4FF0CBF0120F6
:1010100000205DF808FB00BF4DF808EDFFF7EAFF80
:1010200034BF012000205DF808FB00BF4DF808ED3B
:10103000FFF7E0FF94BF012000205DF808FB00BF30
:101040004DF808EDFFF7D2FF94BF012000205DF8B6
:1010500008FB00BF4DF808EDFFF7C8FF34BF0120C3
:1010600000205DF808FB00BF42000ED2B2F1FE4F37
:101070000BD34FF09E03B3EB126209D44FEA002367
:1010800043F0004323FA02F070474FF0000070472E
:1010900012F1610F01D1420202D14FF0FF307047CF
:1010A0004FF00000704700BF80B500AF084A084B02
:1010B0001B6843F010031360032000F043F9002085
:1010C00000F008F806F01AFE0023184680BD00BFA5
:1010D0000020024080B582B000AF7860124B1A68E1
:1010E000124B1B7819464FF47A73B3FBF1F3B2FB42
:1010F000F3F3184600F05BF90346002B01D00123FF
:101100000EE07B680F2B0AD8002279684FF0FF3081
:1011100000F023F9064A7B681360002300E00123F6
:1011200018460837BD4680BD280000200400002076
:101130000000002080B400AF054B1B781A46054B19
:101140001B681344034A136000BFBD4680BC704750
:10115000040000206405002080B400AF024B1B682F
:101160001846BD4680BC70476405002080B584B039
:1011700000AF7860FFF7F0FFB8607B68FB60FB684A
:10118000B3F1FF3F05D0094B1B781A46FB681344A7
:10119000FB6000BFFFF7E0FF0246BB68D21AFB68A6
:1011A0009A42F7D300BF1037BD4680BD040000202F
:1011B00080B485B000AF78607B6803F00703FB6004
:1011C0000C4BDB68BB60BA684FF6FF031340BB6093
:1011D000FB681A02BB68134343F0BF6343F4003358
:1011E000BB60044ABB68D36000BF1437BD4680BCF7
:1011F000704700BF00ED00E080B400AF044BDB6837
:101200001B0A03F007031846BD4680BC704700BFA9
:1012100000ED00E080B483B000AF0346FB7197F9A6
:101220000730002B0BDB084997F907305B09FA7987
:1012300002F01F02012000FA02F241F8232000BF51
:101240000C37BD4680BC704700E100E080B483B03D
:1012500000AF03463960FB7197F90730002B0ADBBA
:101260000D4997F907303A68D2B21201D2B20B4455
:1012700083F800230AE00949FB7903F00F03043BDC
:101280003A68D2B21201D2B20B441A7600BF0C37C0
:10129000BD4680BC704700BF00E100E000ED00E00B
:1012A00080B489B000AFF860B9607A60FB6803F081
:1012B0000703FB61FB69C3F10703042B28BF042369
:1012C000BB61FB690433062B02D9FB69033B00E0D9
:1012D00000237B610122BB6902FA03F35A1EBB683B
:1012E0001A407B699A4001217B6901FA03F3591E78
:1012F0007B680B40134318462437BD4680BC7047BB
:1013000080B582B000AF78607B68013BB3F1807F2D
:1013100001D301230FE00A4A7B68013B53600F2190
:101320004FF0FF30FFF792FF054B00229A60044B0D
:1013300007221A60002318460837BD4680BD00BF4B
:1013400010E000E080B582B000AF78607868FFF709
:101350002FFF00BF0837BD4680BD80B586B000AF07
:101360000346B9607A60FB7300237B61FFF744FF9B
:1013700078617A68B9687869FFF792FF024697F951
:101380000F3011461846FFF761FF00BF1837BD4602
:1013900080BD80B582B000AF0346FB7197F907307E
:1013A0001846FFF737FF00BF0837BD4680BD80B540
:1013B00082B000AF78607868FFF7A2FF0346184656
:1013C0000837BD4680BD000080B584B000AF7860AE
:1013D0000023FB737B6893F82130022B05D07B68D8
:1013E00004229A630123FB7357E07B681B687A68C9
:1013F0001268126822F00E021A607B681B687A6815
:101400001268126822F001021A60264A7B681B6883
:101410001946254B99422ED07B681B681946234BF1
:10142000994226D07B681B681946214B99421DD0F2
:101430007B681B6819461F4B994214D07B681B6858
:1014400019461D4B99420BD07B681B6819461B4BF4
:10145000994202D14FF480130EE04FF080730BE0FD
:101460004FF4803308E04FF4805305E04FF480736D
:1014700002E0102300E0012353607B68012283F81F
:1014800021207B68002283F820207B685B6B002B87
:1014900003D07B685B6B78689847FB7B18461037F6
:1014A000BD4680BD00000240080002401C00024012
:1014B0003000024044000240580002406C000240EC
:1014C00080B483B000AF78607B6893F82130184611
:1014D0000C37BD4680BC704780B48BB000AF7860DD
:1014E000396000237B6200233B6227E101227B6A93
:1014F00002FA03F3FB613B681A68FB691340BB61A6
:10150000BA69FB699A4240F016813B685B68122B0E
:1015100034D0122B0DD8022B2BD0022B04D8002B49
:1015200031D0012B1CD048E0032B43D0112B1BD012
:1015300043E0894A934226D0874A934206D8874A95
:10154000934220D0864A93421DD036E0854A93428A
:1015500019D0854A934216D0844A934213D02CE086
:101560003B68DB683B6228E03B68DB6804333B6236
:1015700023E03B68DB6808333B621EE03B68DB68C6
:101580000C333B6219E03B689B68002B02D10423BB
:101590003B6212E03B689B68012B05D108233B624C
:1015A0007B68FA691A6108E008233B627B68FA6984
:1015B0005A6102E000233B6200BFBB69FF2B01D8E8
:1015C0007B6801E07B6804337B61BB69FF2B02D839
:1015D0007B6A9B0002E07B6A083B9B003B617B6966
:1015E0001A680F213B6901FA03F3DB431A40396A99
:1015F0003B6901FA03F31A437B691A603B685B6835
:1016000003F08053002B00F09680594A584B9B6999
:1016100043F001039361564B9B6903F00103BB60E8
:10162000BB68544A7B6A9B08023352F82330FB6044
:101630007B6A03F003039B000F2202FA03F3DB43F0
:10164000FA681340FB607B684B4A934213D07B6877
:101650004A4A93420DD07B68494A934207D07B683F
:10166000484A934201D1032306E0042304E0022305
:1016700002E0012300E000237A6A02F003029200F4
:101680009340FA681343FB603A497B6A9B08023334
:10169000FA6841F823203B685B6803F48033002B31
:1016A00006D03949384B1A68BB6913430B6006E012
:1016B0003549354B1A68BB69DB4313400B603B6807
:1016C0005B6803F40033002B06D02F492E4B5A6879
:1016D000BB6913434B6006E02B492B4B5A68BB692F
:1016E000DB4313404B603B685B6803F48013002BC3
:1016F00006D02549244B9A68BB6913438B6006E0EA
:101700002149214B9A68BB69DB4313408B603B68DE
:101710005B6803F40013002B06D01B491A4BDA68F0
:10172000BB691343CB6006E01749174BDA68BB6906
:10173000DB431340CB607B6A01337B623B681A68F2
:101740007B6A22FA03F3002B7FF4D0AE00BF2C3764
:10175000BD4680BC704700BF000021100000111082
:1017600000001210000031100000321000002210A2
:10177000001002400000014000080140000C014040
:1017800000100140001401400004014080B485B005
:1017900000AF78600B467B807B689A687B8813403B
:1017A000002B02D00123FB7301E00023FB73FB7BC2
:1017B00018461437BD4680BC7047000080B582B023
:1017C00000AF0346FB80084B5A69FB881340002B8F
:1017D00006D0054AFB885361FB88184605F04AF895
:1017E00000BF0837BD4680BD0004014090B585B0FC
:1017F00000AF78607B68002B01D101231FE17B687B
:1018000093F83D30DBB2002B06D17B68002283F8D1
:101810003C20786806F0A4FA7B68242283F83D20F7
:101820007B681B687A681268126822F001021A60ED
:101830007B681B687A681268126842F400421A607A
:101840007B681B687A681268126822F400421A608A
:1018500002F010FFF8607B685B687B4A934207D810
:10186000FB687A4A934294BF01230023DBB206E06F
:10187000FB68774A934294BF01230023DBB2002B1D
:1018800001D00123DBE0FB68724AA2FB03239B0C1F
:10189000BB607B681B687A681268526822F03F015F
:1018A000BA680A435A607B681A687B681B681B6ABF
:1018B00023F03F017B685B686348834202D8BB68C2
:1018C000013309E0BB684FF4967000FB03F36248F4
:1018D000A0FB03039B0901330B4313627B68186869
:1018E0007B681B68DB6923F44F4222F0FF027B68B0
:1018F0005B6855498B420DD8FB68591E7B685B6855
:101900005B00B1FBF3F30133C3F30B03042B38BFCC
:1019100004234FE07B689B68002B11D1FB685C1EA1
:101920007B6859680B465B000B44B4FBF3F301334F
:10193000C3F30B03002B0CBF01230023DBB212E027
:10194000FB685C1E7B6859680B469B000B44990042
:101950000B44B4FBF3F30133C3F30B03002B0CBFB5
:1019600001230023DBB2002B01D0012322E07B689E
:101970009B68002B0ED1FB685C1E7B6859680B4688
:101980005B000B44B4FBF3F30133C3F30B0343F4E9
:1019900000430FE0FB685C1E7B6859680B469B00A8
:1019A0000B4499000B44B4FBF3F30133C3F30B0373
:1019B00043F440431343C3617B681B687A68126831
:1019C000126822F0C0017A68D0697A68126A02430C
:1019D0000A431A607B681A687B681B689B6823F45B
:1019E000034323F0FF03796808697968C9680143F4
:1019F0000B4393607B681B687A681268D26822F098
:101A0000FF017A6850697A68926902430A43DA6092
:101A10007B681B687A681268126842F001021A60DB
:101A20007B6800221A647B68202283F83D207B6853
:101A300000221A637B68002283F83E2000231846A8
:101A40001437BD4690BD00BFA08601007F841E00F4
:101A5000FF083D0083DE1B43D34D621080B588B084
:101A600002AFF860084611461A4603467B810B46D2
:101A70003B811346FB80FFF76FFB7861FB6893F8AF
:101A80003D30DBB2202B40F0D9807B6900931923D5
:101A900001226D49F86801F0E3FF0346002B01D0F5
:101AA0000223CCE0FB6893F83C30012B01D10223E8
:101AB000C5E0FB68012283F83C20FB681B681B68BB
:101AC00003F00103012B07D0FB681B68FA6812685A
:101AD000126842F001021A60FB681B68FA6812681B
:101AE000126822F400621A60FB68212283F83D200C
:101AF000FB68402283F83E20FB6800221A64FB68E2
:101B00003A6A5A62FB68BA8C5A85FB685B8D9AB256
:101B1000FB681A85FB684D4ADA62F8883A89798948
:101B20007B690193BB6A00930346F86801F074FD7A
:101B30000346002B52D0012381E07A69B96AF86824
:101B400002F064F80346002B0DD0FB681B6C042BDD
:101B500007D1FB681B68FA681268126842F40072C9
:101B60001A6001236BE0FB681B68FA68526A1278FE
:101B70001A61FB685B6A5A1CFB685A62FB681B8D22
:101B8000013B9AB2FB681A85FB685B8D9BB2013BF7
:101B90009AB2FB685A85FB681B685B6903F0040313
:101BA000042B1BD1FB681B8D002B17D0FB681B6817
:101BB000FA68526A12781A61FB685B6A5A1CFB6801
:101BC0005A62FB681B8D013B9AB2FB681A85FB6861
:101BD0005B8D9BB2013B9AB2FB685A85FB681B8DFB
:101BE000002BAAD17A69B96AF86802F050F8034666
:101BF000002B0DD0FB681B6C042B07D1FB681B6806
:101C0000FA681268126842F400721A60012316E042
:101C1000FB681B68FA681268126842F400721A6066
:101C2000FB68202283F83D20FB68002283F83E20D9
:101C3000FB68002283F83C20002300E002231846C2
:101C40001837BD4680BD00BF020010000000FFFF36
:101C500080B58CB002AFF860084611461A460346BC
:101C60007B810B463B811346FB8000233B62FFF7E1
:101C700073FA7862FB6893F83D30DBB2202B40F0BA
:101C80003D827B6A0093192301228149F86801F0A3
:101C9000E7FE0346002B01D0022330E2FB6893F8F5
:101CA0003C30012B01D1022329E2FB68012283F899
:101CB0003C20FB681B681B6803F00103012B07D065
:101CC000FB681B68FA681268126842F001021A6029
:101CD000FB681B68FA681268126822F400621A60D6
:101CE000FB68222283F83D20FB68402283F83E20D7
:101CF000FB6800221A64FB683A6B5A62FB68BA8E72
:101D00005A85FB685B8D9AB2FB681A85FB68614A4D
:101D1000DA62F8883A8979897B6A0193BB6B009310
:101D20000346F86801F00CFD0346002B01D00123A7
:101D3000E5E1FB681B8D002B13D10023FB61FB68E1
:101D40001B685B69FB61FB681B689B69FB61FB6946
:101D5000FB681B68FA681268126842F400721A6025
:101D6000B9E1FB681B8D012B1DD1FB681B68FA686C
:101D70001268126822F480621A6072B60023BB6196
:101D8000FB681B685B69BB61FB681B689B69BB6187
:101D9000BB69FB681B68FA681268126842F400723B
:101DA0001A6062B697E1FB681B8D022B1DD1FB68A0
:101DB0001B68FA681268126842F400621A6072B610
:101DC00000237B61FB681B685B697B61FB681B68A8
:101DD0009B697B617B69FB681B68FA681268126803
:101DE00022F480621A6062B675E1FB681B68FA68CB
:101DF0001268126842F480621A6000233B61FB683B
:101E00001B685B693B61FB681B689B693B613B69C5
:101E100061E1FB681B8D032B00F21A81FB681B8DAF
:101E2000012B23D17A6AB96BF86801F0A3FF03464E
:101E3000002B01D0012362E1FB685B6AFA6812683B
:101E40001269D2B21A70FB685B6A5A1CFB685A624C
:101E5000FB681B8D013B9AB2FB681A85FB685B8DA2
:101E60009BB2013B9AB2FB685A8534E1FB681B8D3B
:101E7000022B50D17B6A0093BB6B00220649F868A5
:101E800001F0EEFD0346002B08D0012337E100BF2F
:101E9000020010000000FFFF0400010072B6FB68A2
:101EA0001B68FA681268126842F400721A60FB68D4
:101EB0005B6AFA6812681269D2B21A70FB685B6AD0
:101EC0005A1CFB685A62FB681B8D013B9AB2FB6887
:101ED0001A85FB685B8D9BB2013B9AB2FB685A8501
:101EE00062B6FB685B6AFA6812681269D2B21A704D
:101EF000FB685B6A5A1CFB685A62FB681B8D013BDE
:101F00009AB2FB681A85FB685B8D9BB2013B9AB263
:101F1000FB685A85DFE07B6A0093BB6B00227A493D
:101F2000F86801F09DFD0346002B01D00123E6E097
:101F3000FB681B68FA681268126822F480621A60F3
:101F400072B6FB685B6AFA6812681269D2B21A70DC
:101F5000FB685B6A5A1CFB685A62FB681B8D013B7D
:101F60009AB2FB681A85FB685B8D9BB2013B9AB203
:101F7000FB685A85654B1B68DB08654AA2FB032397
:101F80001A0A13469B001344DA00D31A3B623B6AD9
:101F9000013B3B623B6A002B17D1FB6800221A63AE
:101FA000FB68202283F83D20FB68002283F83E2056
:101FB000FB681B6C43F02002FB681A6462B6FB6886
:101FC000002283F83C20012399E0FB681B685B69D1
:101FD00003F00403042BDAD1FB681B68FA6812686B
:101FE000126842F400721A60FB685B6AFA68126851
:101FF0001269D2B21A70FB685B6A5A1CFB685A629B
:10200000FB681B8D013B9AB2FB681A85FB685B8DF0
:102010009BB2013B9AB2FB685A8562B6FB685B6A69
:10202000FA6812681269D2B21A70FB685B6A5A1CAD
:10203000FB685A62FB681B8D013B9AB2FB681A85EC
:10204000FB685B8D9BB2013B9AB2FB685A8542E00C
:102050007A6AB96BF86801F08DFE0346002B01D057
:1020600001234CE0FB685B6AFA6812681269D2B21D
:102070001A70FB685B6A5A1CFB685A62FB681B8D0E
:10208000013B9AB2FB681A85FB685B8D9BB2013BF2
:102090009AB2FB685A85FB681B685B6903F004030E
:1020A000042B18D1FB685B6AFA6812681269D2B215
:1020B0001A70FB685B6A5A1CFB685A62FB681B8DCE
:1020C000013B9AB2FB681A85FB685B8D9BB2013BB2
:1020D0009AB2FB685A85FB681B8D002B7FF499AE82
:1020E000FB68202283F83D20FB68002283F83E2015
:1020F000FB68002283F83C20002300E002231846FE
:102100002837BD4680BD00BF040001002800002024
:1021100089B5F81480B588B000AF78600023BB6142
:102120007B681B685B687B617B68DB6A3B617B6803
:1021300093F83E30FB737B6893F83D30BB73FB7BB9
:10214000102B03D0FB7B402B40F0AD807B681B68DD
:102150009B69BB617B681B685B69FB61FB6903F082
:102160000103002B0DD13B69B3F52A0F03D03B6966
:10217000B3F12A4F01D1012300E00023012B00F02D
:102180001081FB6903F00103002B0BD07B6903F482
:102190000073002B06D0786801F070FE786800F0BC
:1021A00094FC7FE0FB6903F00803002B08D07B69F7
:1021B00003F40073002B03D0786800F009FD71E090
:1021C000FB6903F00203002B08D07B6903F4007362
:1021D000002B03D0786800F024FD63E0BB6903F0B6
:1021E0000403002B32D07B681B685B6803F4006338
:1021F000B3F5006F00F0D780FB6903F08003002B7C
:102200000DD07B6903F48063002B08D0FB6903F0D9
:102210000403002B03D1786800F029F942E0FB6940
:1022200003F00403002B00F0BE807B6903F400730D
:10223000002B00F0B880FB7B102B03D1786800F0F6
:10224000B2F9B0E0786800F016FAACE07B681B6881
:102250005B6803F40063B3F5006F00F0A480FB69D2
:1022600003F04003002B0DD07B6903F48063002B47
:1022700008D0FB6903F00403002B03D1786800F059
:1022800089FA0FE0FB6903F00403002B00F08B8058
:102290007B6903F40073002B00F08580786800F000
:1022A0002AFB80E07FE07B681B6C002B04D07B68FE
:1022B0001B685B69FB6107E07B681B689B69BB610E
:1022C0007B681B685B69FB61FB6903F00203002B01
:1022D00011D07B6903F40073002B0CD07B681B6C5E
:1022E000002B03D07B681B689B69BB61B969786868
:1022F00000F0EEFE5AE0FB6903F01003002B08D05B
:102300007B6903F40073002B03D0786800F022FF90
:102310004CE0BB7B212B02D0BB7B292B20D1FB695E
:1023200003F08003002B0DD07B6903F48063002B46
:1023300008D0FB6903F00403002B03D1786800F098
:102340000BFE32E0FB6903F00403002B2DD07B6908
:1023500003F40073002B28D0786800F03AFE24E0E4
:10236000FB6903F04003002B0DD07B6903F480630D
:10237000002B08D0FB6903F00403002B03D178681D
:1023800000F047FE12E0FB6903F00403002B0DD0C0
:102390007B6903F40073002B08D0786800F077FEA7
:1023A00004E000BF02E000BF00E000BF2037BD46F0
:1023B00080BD80B483B000AF786000BF0C37BD46ED
:1023C00080BC704780B483B000AF786000BF0C372A
:1023D000BD4680BC704780B483B000AF786000BF5A
:1023E0000C37BD4680BC704780B483B000AF7860C6
:1023F00000BF0C37BD4680BC704780B483B000AFCF
:1024000078600B46FB7013463B8000BF0C37BD461F
:1024100080BC704780B483B000AF786000BF0C37D9
:10242000BD4680BC704780B483B000AF786000BF09
:102430000C37BD4680BC704780B483B000AF786075
:1024400000BF0C37BD4680BC704780B483B000AF7E
:10245000786000BF0C37BD4680BC704780B483B045
:1024600000AF786000BF0C37BD4680BC704780B5B8
:1024700084B000AF78607B6893F83D30FB737B6875
:1024800093F83E30BB737B68DB6ABB607B681B8D57
:10249000002B50D1FB7B212B4DD1BB68082B1DD0CD
:1024A000BB68202B1AD0BB6813F5803F16D07B6821
:1024B0001B687A681268526822F4E0625A607B688E
:1024C00011221A637B68002283F83E207B68202259
:1024D00083F83D207868FFF76CFF60E07B681B683D
:1024E0007A681268526822F4E0625A607B681B685E
:1024F0007A681268126842F400721A607B680022DF
:102500001A637B68202283F83D207B6893F83E3075
:10251000DBB2402B07D17B68002283F83E2078682D
:10252000FFF781FF3BE07B68002283F83E2078685C
:10253000FFF73FFF33E0FB7B212B05D0BB7B402B1C
:102540002DD1FB7B222B2AD17B685B8D9BB2002B8C
:1025500008D17B681B687A681268526822F480622E
:102560005A601CE07B6893F83E30DBB2402B03D10D
:10257000786800F080F812E07B681B687A68526A1D
:1025800012781A617B685B6A5A1C7B685A627B68A6
:102590005B8D9BB2013B9AB27B685A85FFE700BF17
:1025A0001037BD4680BD80B584B000AF78607B68D1
:1025B000DB6AFB607B6893F83D30DBB2212B56D1A0
:1025C0007B685B8D9BB2002B12D07B681B687A689E
:1025D000526A12781A617B685B6A5A1C7B685A627D
:1025E0007B685B8D9BB2013B9AB27B685A853EE06B
:1025F000FB68082B1DD0FB68202B1AD0FB6813F555
:10260000803F16D07B681B687A681268526822F493
:10261000E0625A607B6811221A637B68002283F8AB
:102620003E207B68202283F83D207868FFF7C1FEBA
:102630001DE07B681B687A681268526822F4E062C9
:102640005A607B681B687A681268126842F40072EC
:102650001A607B6800221A637B68202283F83D2081
:102660007B68002283F83E207868FFF7A2FE00BF57
:102670001037BD4680BD80B584B000AF78607B6800
:1026800093F83D30FB737B681B6D002B1DD17B687D
:10269000DB6C012B0BD17B681B687A68926CD2B221
:1026A0001A617B681B6D9A1C7B681A656EE07B68FB
:1026B0001B687A68926C92B21212D2B21A617B686D
:1026C0001B6D5A1C7B681A6560E07B681B6D012BD3
:1026D0000BD17B681B687A68926CD2B21A617B68F6
:1026E0001B6D5A1C7B681A6550E07B681B6D022BC2
:1026F0004CD1FB7B222B08D17B681B687A6812685F
:10270000126842F480721A6040E07B685B8D9BB275
:10271000002B15D0FB7B212B12D17B681B687A68BC
:10272000526A12781A617B685B6A5A1C7B685A622B
:102730007B685B8D9BB2013B9AB27B685A8525E032
:102740007B685B8D9BB2002B20D1FB7B212B1DD1A5
:102750007B681B687A681268526822F4E0625A60EB
:102760007B681B687A681268126842F400721A600B
:102770007B6800221A637B68202283F83D207B68F7
:10278000002283F83E207868FFF74DFE00BF103727
:10279000BD4680BD80B584B000AF78607B6893F89B
:1027A0003D30DBB2222B40F0A2807B685B8D9BB278
:1027B000FB60FB68032B21D97B685B6A7A6812682F
:1027C0001269D2B21A707B685B6A5A1C7B685A62C3
:1027D0007B685B8D9BB2013B9AB27B685A857B68B4
:1027E0005B8D9BB2032B40F082807B681B687A680C
:1027F0001268526822F480625A6078E07B68DB6A73
:10280000022B74D0FB68012B02D0FB68002B6ED129
:10281000786801F07DFA0346002B42D17B681B6883
:102820007A681268126822F480621A607B681B68FA
:102830007A681268526822F4E0625A607B685B6AC8
:102840007A6812681269D2B21A707B685B6A5A1C85
:102850007B685A627B685B8D9BB2013B9AB27B6856
:102860005A857B68202283F83D207B6893F83E30B0
:10287000DBB2402B0AD17B68002283F83E207B68C4
:1028800000221A637868FFF7D7FD30E07B680022EA
:1028900083F83E207B6812221A637868FFF792FD66
:1028A00025E07B681B687A681268526822F4E0624F
:1028B0005A607B685B6A7A6812681269D2B21A70D1
:1028C0007B685B6A5A1C7B685A627B685B8D9BB233
:1028D000013B9AB27B685A857B68202283F83D20B1
:1028E0007B68002283F83E207868FFF7AEFD00BFCA
:1028F0001037BD4680BD80B584B000AF78607B687E
:10290000DB6AFB607B685B8D9BB2042B1BD17B6811
:102910001B687A681268526822F480625A607B6889
:102920005B6A7A6812681269D2B21A707B685B6A55
:102930005A1C7B685A627B685B8D9BB2013B9AB2E2
:102940007B685A85BDE07B685B8D9BB2032B29D1E8
:102950007B681B687A681268526822F480625A6049
:10296000FB68042B0AD0FB68022B07D07B681B682E
:102970007A681268126822F480621A607B685B6A67
:102980007A6812681269D2B21A707B685B6A5A1C44
:102990007B685A627B685B8D9BB2013B9AB27B6815
:1029A0005A858EE07B685B8D9BB2022B76D1FB68EB
:1029B000012B02D0FB68102B08D17B681B687A685A
:1029C0001268126822F480621A6019E0FB68042B16
:1029D00002D0FB68022B08D17B681B687A681268FA
:1029E000126842F480621A600AE0FB68102B07D07C
:1029F0007B681B687A681268126842F400721A6079
:102A00007B685B6A7A6812681269D2B21A707B6856
:102A10005B6A5A1C7B685A627B685B8D9BB2013B88
:102A20009AB27B685A857B685B6A7A681268126919
:102A3000D2B21A707B685B6A5A1C7B685A627B68E8
:102A40005B8D9BB2013B9AB27B685A857B681B68A1
:102A50007A681268526822F440725A607B682022B9
:102A600083F83D207B6893F83E30DBB2402B0AD1DF
:102A70007B68002283F83E207B6800221A63786816
:102A8000FFF7DAFC1DE07B68002283F83E207B68BC
:102A900012221A637868FFF795FC12E07B685B6A84
:102AA0007A6812681269D2B21A707B685B6A5A1C23
:102AB0007B685A627B685B8D9BB2013B9AB27B68F4
:102AC0005A8500BF1037BD4680BD80B483B000AFCB
:102AD00078607B6893F83E30DBB2402B16D17B6880
:102AE0001B6D002B08D17B681B687A68526CD2B2D0
:102AF00002F0FE021A6166E07B681B687A68526C1D
:102B0000D2B242F00102D2B21A615CE07B681B696A
:102B1000B3F5804F32D17B6893F83D30DBB2212B87
:102B200008D17B681B687A68526CD2B202F0FE0250
:102B30001A6108E07B681B687A68526CD2B242F076
:102B40000102D2B21A617B685B6B002B04D07B68F8
:102B50005B6B9B6A002B08D17B689B6B002B32D090
:102B60007B689B6B9B6A002B2DD07B681B687A6807
:102B70001268526842F400625A6024E07B681B6D60
:102B8000002B0ED17B681B687A68526C92B2D2110E
:102B9000D2B202F00602D2B262F00F02D2B21A61D1
:102BA00011E07B681B6D012B0DD17B681B687A6877
:102BB000526C92B2D211D2B202F00602D2B262F0DC
:102BC0000E02D2B21A6100BF0C37BD4680BC7047FE
:102BD00080B483B000AF78607B681B687A68526C01
:102BE000D2B21A617B685B6B002B03D17B689B6B55
:102BF000002B11D07B685B6B9B6A002B04D17B6838
:102C00009B6B9B6A002B07D07B681B687A681268F5
:102C1000526842F400625A6000BF0C37BD4680BC67
:102C2000704780B491B000AF78607B6893F83E3015
:102C300087F83F307B68DB6ABB637B681B6B7B6319
:102C40007B6893F83D30DBB2222B40F074817B68C7
:102C50001B6D002B0FD197F83F30402B0BD1002379
:102C60003B637B681B685B693B637B681B689B6994
:102C70003B633B6B6BE17B681B6D002B1DD17B685D
:102C80001B69B3F5404F18D10023FB627B681B68BA
:102C90005B69FB627B681B689B69FB62FB6A7B6804
:102CA0001B687A681268126842F480721A607B6846
:102CB0001B6D5A1C7B681A6549E17B685B8D9BB272
:102CC000002B13D10023BB627B681B685B69BB626E
:102CD0007B681B689B69BB62BB6A7B681B687A6800
:102CE0001268126842F400721A6020E17B685B8D02
:102CF0009BB2012B40F08A80BB6B13F5803F37D12C
:102D00007B681B687A681268126822F480621A6015
:102D10007B681B685B6803F40063B3F5006F13D135
:102D20007B681B687A681268126822F480621A60F5
:102D300000237B627B681B685B697B627B681B6826
:102D40009B697B627B6AF2E000233B627B681B68C5
:102D50005B693B627B681B689B693B623B6A7B6883
:102D60001B687A681268126842F400721A60DEE02A
:102D7000BB6B082B2ED0BB6B202B2BD07B6B122B6D
:102D800002D1BB6B012B25D1BB6B042B0ED0BB6BCF
:102D9000022B0BD0BB6B102B08D07B681B687A68AA
:102DA0001268126822F480621A6007E07B681B6870
:102DB0007A681268126842F480621A600023FB612C
:102DC0007B681B685B69FB617B681B689B69FB61B7
:102DD000FB69ACE07B681B687A681268126822F4B1
:102DE00080621A600023BB617B681B685B69BB6102
:102DF0007B681B689B69BB61BB697B681B687A68E1
:102E00001268126842F400721A6090E07B685B8D71
:102E10009BB2022B58D1BB6B042B21D0BB6B022B76
:102E20001ED0BB6B102B1BD07B681B687A681268A6
:102E3000126842F400621A6000237B617B681B68A1
:102E40005B697B617B681B689B697B617B697B68D5
:102E50001B687A681268126822F480621A6012E0B5
:102E60007B681B687A681268126842F480621A6094
:102E700000233B617B681B685B693B617B681B6867
:102E80009B693B613B697B681B685B6803F400637B
:102E9000B3F5006F4BD1BB6B13F5803F0BD0BB6B11
:102EA000012B08D0BB6B082B05D0BB6B102B02D0BD
:102EB000BB6B202B3BD17B681B687A681268526819
:102EC00042F480525A6032E07B681B687A6812686C
:102ED000126842F480621A607B681B685B6803F4C6
:102EE0000063B3F5006F17D1BB6B13F5803F0BD0B8
:102EF000BB6B012B08D0BB6B082B05D0BB6B102B19
:102F000002D0BB6B202B07D17B681B687A681268E4
:102F1000526842F480525A600023FB607B681B6851
:102F20005B69FB607B681B689B69FB60FB687B6877
:102F300000221A650BE00023BB607B681B685B699D
:102F4000BB607B681B689B69BB60BB68FFE700BF19
:102F50004437BD4680BC704780B584B000AF786010
:102F60007B6893F83D30FB737B685B8D9BB2002BD5
:102F70002BD07B681B687A68526A12781A617B686A
:102F80005B6A5A1C7B685A627B685B8D9BB2013B13
:102F90009AB27B685A857B685B8D9BB2002B14D1FB
:102FA000FB7B292B11D17B681B687A6812685268F9
:102FB00022F480625A607B6821221A637B6828228F
:102FC00083F83D207868FFF706FA00BF1037BD464A
:102FD00080BD80B483B000AF78607B685B8D9BB2AE
:102FE000002B11D07B681B687A68526A12781A61CC
:102FF0007B685B6A5A1C7B685A627B685B8D9BB2FC
:10300000013B9AB27B685A8500BF0C37BD4680BC35
:10301000704780B584B000AF78607B6893F83D302E
:10302000FB737B685B8D9BB2002B2CD07B685B6A4B
:103030007A6812681269D2B21A707B685B6A5A1C8D
:103040007B685A627B685B8D9BB2013B9AB27B685E
:103050005A857B685B8D9BB2002B14D1FB7B2A2B9E
:1030600011D17B681B687A681268526822F480620A
:103070005A607B6822221A637B68282283F83D20ED
:103080007868FFF7B1F900BF1037BD4680BD80B446
:1030900083B000AF78607B685B8D9BB2002B12D051
:1030A0007B685B6A7A6812681269D2B21A707B68B0
:1030B0005B6A5A1C7B685A627B685B8D9BB2013BE2
:1030C0009AB27B685A8500BF0C37BD4680BC7047FA
:1030D00080B584B000AF786039600023FB737B68F3
:1030E00093F83D30DBB203F02803282B25D17B6811
:1030F0001B687A681268526822F480625A603B68E2
:1031000003F00403002B01D10123FB733B6803F0A0
:103110008003002B03D17B68DB68BB8102E07B6806
:103120009B69BB817B68002283F83C20BA89FB7BCA
:1031300019467868FFF761F908E07B681B686FF053
:1031400002025A617B68002283F83C2000BF1037DE
:10315000BD4680BD80B584B000AF78607B6893F8D1
:103160003D30FB737B681B687A681268526822F4F2
:10317000E0625A600023BB607B681B685B69BB60D0
:103180007B681B687A681268126842F001021A6054
:10319000BB687B681B687A681268126822F48062D8
:1031A0001A607B681B685B6803F40063B3F5006F0B
:1031B00072D1FB7B222B02D0FB7B2A2B35D17B6883
:1031C0009B6B1B685B689AB27B685A857B685B8DDA
:1031D0009BB2002B05D07B681B6C43F004027B681C
:1031E0001A647B681B687A681268526822F400626D
:1031F0005A607B689B6B1846FEF762F90346012B09
:1032000049D07B689B6B694A5A637B689B6B184605
:10321000FEF7DAF80346002B3DD07B689B6B5B6BB7
:103220007A68926B1046984735E07B685B6B1B6849
:103230005B689AB27B685A857B685B8D9BB2002B7A
:1032400005D07B681B6C43F004027B681A647B68C2
:103250001B687A681268526822F400625A607B68C0
:103260005B6B1846FEF72CF90346012B14D07B68E4
:103270005B6B4E4A5A637B685B6B1846FEF7A4F89B
:103280000346002B08D07B685B6B5B6B7A68526BE4
:103290001046984700E000BF7B685B8D9BB2002B17
:1032A0003ED07B681B685B6903F00403042B12D1DA
:1032B0007B685B6A7A6812681269D2B21A707B689E
:1032C0005B6A5A1C7B685A627B685B8D9BB2013BD0
:1032D0009AB27B685A857B681B685B6903F0400380
:1032E000402B12D17B685B6A7A6812681269D2B28D
:1032F0001A707B685B6A5A1C7B685A627B685B8DBC
:103300009BB2013B9AB27B685A857B685B8D9BB20E
:10331000002B05D07B681B6C43F004027B681A64A9
:103320007B681B6C002B03D0786800F043F839E011
:10333000FB7B2A2B09D17B6800221A637B68282239
:1033400083F83D207868FFF74FF87B6893F83D30AD
:10335000DBB2282B11D17B68154ADA627B68002228
:103360001A637B68202283F83D207B68002283F863
:103370003E207868FFF74EF814E07B681B6B222B29
:1033800002D0FB7B222B0DD17B6800221A637B6865
:10339000202283F83D207B68002283F83E20786855
:1033A000FFF722F800BF1037BD4680BD1139000875
:1033B0000000FFFF80B584B000AF78607B6893F8B1
:1033C0003D30FB737B6893F83E30BB73BB7B102BA7
:1033D00002D0BB7B402B0AD1FB7B222B07D17B6821
:1033E0001B687A681268126822F400621A60FB7B1C
:1033F00003F02803282B07D17B6800221A637B681F
:10340000282283F83D2015E07B681B685B6803F485
:103410000063B3F5006F0AD0FB7B602B07D07B689D
:10342000202283F83D207B68002283F83E207B68C1
:1034300000221A637B681B685B6803F40063B3F5C2
:10344000006F61D17B681B687A681268526822F449
:1034500000625A607B685B6B93F82130012B20D0AF
:103460007B685B6B6A4A5A637B685B6B1846FDF747
:10347000ABFF0346002B00F089807B681B687A68ED
:103480001268126822F001021A607B68202283F819
:103490003D207B685B6B5B6B7A68526B104698478C
:1034A00074E07B689B6B5A4A5A637B689B6B184637
:1034B000FDF78AFF0346002B68D07B681B685B69B9
:1034C00003F04003402B0BD17B685B6A7A6812687B
:1034D0001269D2B21A707B685B6A5A1C7B685A62A6
:1034E0007B681B687A681268126822F001021A6011
:1034F0007B68202283F83D207B689B6B5B6B7A683E
:10350000926B1046984741E07B6893F83D30DBB200
:10351000602B25D17B68202283F83D207B68002228
:103520001A647B681B685B6903F04003402B0BD176
:103530007B685B6A7A6812681269D2B21A707B681B
:103540005B6A5A1C7B685A627B681B687A681268DF
:10355000126822F001021A607868FEF77FFF15E01A
:103560007B681B685B6903F04003402B0BD17B68D1
:103570005B6A7A6812681269D2B21A707B685B6AF9
:103580005A1C7B685A627868FEF75FFF7B681B6C89
:10359000BB60BB6803F00103002B0ED1BB6803F0D6
:1035A0000203002B09D1BB6803F00403002B04D1F4
:1035B000BB6803F00803002B07D07B681B687A68A0
:1035C0001268526822F4E0625A607B6893F83D30DA
:1035D000FB737B681B6C03F00403042B13D1FB7B90
:1035E000282B10D17B680B4ADA627B6800221A63B1
:1035F0007B68202283F83D207B68002283F83E20F0
:103600007868FEF707FF00BF1037BD4680BD00BFDA
:10361000113900080000FFFF80B588B002AFF860E4
:10362000084611461A4603467B810B463B811346EA
:10363000FB80FB681B68FA681268126842F48072AB
:103640001A607B6A00933B6A00224FF00111F86810
:1036500000F006FA0346002B0DD0FB681B681B68C0
:1036600003F48073B3F5807F03D1FB684FF40072DD
:103670001A6403235EE0FB681B687A89D2B202F009
:10368000FE021A617B6A3A6A2C49F86800F03FFA38
:103690000346002B01D001234CE000237B61FB6833
:1036A0001B685B697B61FB681B689B697B617B694D
:1036B0007A6A396AF86800F0A9FA0346002B0DD03F
:1036C000FB681B6C042B07D1FB681B68FA68126847
:1036D000126842F400721A6001232BE0FB88012B70
:1036E00005D1FB681B683A89D2B21A6121E0FB68F8
:1036F0001B683A89120A92B2D2B21A617A6A396A9E
:10370000F86800F083FA0346002B0DD0FB681B6CB1
:10371000042B07D1FB681B68FA681268126842F430
:1037200000721A60012305E0FB681B683A89D2B277
:103730001A61002318461837BD4680BD02000100FB
:1037400080B588B002AFF860084611461A460346B5
:103750007B810B463B811346FB80FB681B68FA6844
:103760001268126842F480621A60FB681B68FA688B
:103770001268126842F480721A607B6A00933B6A96
:1037800000224FF00111F86800F06AF90346002B9F
:103790000DD0FB681B681B6803F48073B3F5807F52
:1037A00003D1FB684FF400721A640323A9E0FB689D
:1037B0001B687A89D2B202F0FE021A617B6A3A6A09
:1037C0005249F86800F0A3F90346002B01D0012309
:1037D00097E000237B61FB681B685B697B61FB688A
:1037E0001B689B697B617B697A6A396AF86800F0BB
:1037F0000DFA0346002B0DD0FB681B6C042B07D180
:10380000FB681B68FA681268126842F400721A605A
:10381000012376E0FB88012B05D1FB681B683A8900
:10382000D2B21A6121E0FB681B683A89120A92B28F
:10383000D2B21A617A6A396AF86800F0E7F9034689
:10384000002B0DD0FB681B6C042B07D1FB681B6899
:10385000FA681268126842F400721A60012350E09C
:10386000FB681B683A89D2B21A617A6A396AF868C9
:1038700000F0CCF90346002B0DD0FB681B6C042B29
:1038800007D1FB681B68FA681268126842F400727C
:103890001A60012335E0FB681B68FA681268126839
:1038A00042F480721A607B6A00933B6A00224FF0F8
:1038B0000111F86800F0D4F80346002B0DD0FB6826
:1038C0001B681B6803F48073B3F5807F03D1FB682A
:1038D0004FF400721A64032313E0FB681B687A89B3
:1038E000D2B242F00102D2B21A617B6A3A6A074947
:1038F000F86800F00CF90346002B01D0012300E02A
:10390000002318461837BD4680BD00BF02000100E5
:1039100080B586B000AF78600023FB607B685B6A8F
:103920007B617B6993F83D30FB744B4B1B68DB0874
:103930004A4AA2FB03231A0A13469B001344DA00E7
:10394000D31AFB60FB68002B06D17B691B6C43F02C
:1039500020027B691A640AE0FB68013BFB607B691B
:103960001B681B6803F40073B3F5007FEAD07B6922
:103970005B6B002B03D07B695B6B00229A627B69D7
:103980009B6B002B03D07B699B6B00229A627B6947
:103990001B687A691268126822F480621A607B6977
:1039A00000225A857B695B6B002B03D07B695B6BC4
:1039B00000225A637B699B6B002B03D07B699B6B56
:1039C00000225A637B691B687A691268126822F0C8
:1039D00001021A607B6993F83D30DBB2602B0ED197
:1039E0007B69202283F83D207B69002283F83E20FA
:1039F0007B6900221A647869FEF730FD27E0FB7CC2
:103A000003F02803282B17D17B691B687A69126899
:103A1000126842F001021A607B691B687A691268B9
:103A2000126842F480621A607B6900221A637B6923
:103A3000282283F83D2007E07B69202283F83D207F
:103A40007B69002283F83E207869FEF7FEFC00BF08
:103A50001837BD4680BD00BF2800002089B5F81486
:103A600080B584B000AFF860B9603B601346FB716D
:103A700025E03B68B3F1FF3F21D0FDF76DFB024627
:103A8000BB69D21A3B689A4202D83B68002B16D118
:103A9000FB6800221A63FB68202283F83D20FB6844
:103AA000002283F83E20FB681B6C43F02002FB6879
:103AB0001A64FB68002283F83C20012323E0BB68E2
:103AC0001B0CDBB2012B0DD1FB681B685B69DA4371
:103AD000BB6813409BB2002B0CBF01230023DBB259
:103AE0001A460CE0FB681B689B69DA43BB6813400D
:103AF0009BB2002B0CBF01230023DBB21A46FB79DB
:103B00009A42B6D0002318461037BD4680BD80B516
:103B100084B000AFF860B9607A603B6051E0FB6848
:103B20001B685B6903F48063B3F5806F23D1FB6886
:103B30001B68FA681268126842F400721A60FB6827
:103B40001B686FF480625A61FB6800221A63FB688D
:103B5000202283F83D20FB68002283F83E20FB688A
:103B60001B6C43F00402FB681A64FB68002283F8B4
:103B70003C20012346E07B68B3F1FF3F21D0FDF7F5
:103B8000EBFA02463B68D21A7B689A4202D87B68FD
:103B9000002B16D1FB6800221A63FB68202283F8F1
:103BA0003D20FB68002283F83E20FB681B6C43F03D
:103BB0002002FB681A64FB68002283F83C20012382
:103BC00020E0BB681B0CDBB2012B0CD1FB681B682F
:103BD0005B69DA43BB6813409BB2002B14BF01231F
:103BE0000023DBB20BE0FB681B689B69DA43BB6810
:103BF00013409BB2002B14BF01230023DBB2002B28
:103C00008DD1002318461037BD4680BD80B584B0E5
:103C100000AFF860B9607A602DE0F86800F000F954
:103C20000346002B01D001232DE0BB68B3F1FF3F19
:103C300021D0FDF791FA02467B68D21ABB689A42FE
:103C400002D8BB68002B16D1FB6800221A63FB6800
:103C5000202283F83D20FB68002283F83E20FB6889
:103C60001B6C43F02002FB681A64FB68002283F897
:103C70003C20012307E0FB681B685B6903F08003BD
:103C8000802BCAD1002318461037BD4680BD80B5B1
:103C900084B000AFF860B9607A602DE0F86800F099
:103CA000BFF80346002B01D001232DE0BB68B3F120
:103CB000FF3F21D0FDF750FA02467B68D21ABB685D
:103CC0009A4202D8BB68002B16D1FB6800221A6307
:103CD000FB68202283F83D20FB68002283F83E2009
:103CE000FB681B6C43F02002FB681A64FB6800222F
:103CF00083F83C20012307E0FB681B685B6903F045
:103D00000403042BCAD1002318461037BD4680BDDA
:103D100080B485B000AF78600023FB60134B1B6854
:103D2000DB08134AA2FB03231A0A13469B00134421
:103D3000FB60FB68013BFB60FB68002B07D17B68E5
:103D40001B6C43F020027B681A64012308E07B6847
:103D50001B681B6803F40073B3F5007FE9D00023F0
:103D600018461437BD4680BC704700BF28000020AD
:103D700089B5F81480B584B000AFF860B9607A6096
:103D800042E0FB681B685B6903F01003102B19D13C
:103D9000FB681B686FF010025A61FB6800221A630F
:103DA000FB68202283F83D20FB68002283F83E2038
:103DB000FB681A6CFB681A64FB68002283F83C20DD
:103DC000012329E0FDF7C8F902467B68D21ABB68D7
:103DD0009A4202D8BB68002B16D1FB6800221A63F6
:103DE000FB68202283F83D20FB68002283F83E20F8
:103DF000FB681B6C43F02002FB681A64FB6800221E
:103E000083F83C20012307E0FB681B685B6903F033
:103E10004003402BB5D1002318461037BD4680BD66
:103E200080B483B000AF78607B681B685B6903F483
:103E30008063B3F5806F1BD17B681B686FF4806271
:103E40005A617B6800221A637B68202283F83D2038
:103E50007B68002283F83E207B681B6C43F00402E1
:103E60007B681A647B68002283F83C20012300E011
:103E7000002318460C37BD4680BC704780B483B021
:103E800000AF78607B68DB6AB3F52A0F03D17B68EB
:103E90000122DA6207E07B68DB6AB3F12A4F02D1C4
:103EA0007B680822DA6200BF0C37BD4680BC7047D1
:103EB00080B400AF034B01221A6000BFBD4680BC36
:103EC000704700BF20000E4280B586B000AF78601A
:103ED0007B68002B01D101236CE27B681B6803F037
:103EE0000103002B00F08780924B5B6803F00C030A
:103EF000042B0CD08F4B5B6803F00C03082B12D102
:103F00008C4B5B6803F48033B3F5803F0BD1894B56
:103F10001B6803F40033002B6CD07B685B68002BBC
:103F200068D1012346E27B685B68B3F5803F06D128
:103F3000804A804B1B6843F4803313602EE07B681B
:103F40005B68002B0CD17B4A7A4B1B6823F48033CF
:103F50001360784A774B1B6823F4802313601DE0BD
:103F60007B685B68B3F5A02F0CD1724A714B1B685C
:103F700043F4802313606F4A6E4B1B6843F4803315
:103F800013600BE06B4A6B4B1B6823F480331360A8
:103F9000684A684B1B6823F4802313607B685B6866
:103FA000002B13D0FDF7D8F8386108E0FDF7D4F8FE
:103FB00002463B69D31A642B01D90323FAE15D4B16
:103FC0001B6803F40033002BF0D014E0FDF7C4F8B5
:103FD000386108E0FDF7C0F802463B69D31A642B4C
:103FE00001D90323E6E1534B1B6803F40033002B94
:103FF000F0D100E000BF7B681B6803F00203002BD8
:1040000063D04C4B5B6803F00C03002B0BD0494B87
:104010005B6803F00C03082B1CD1464B5B6803F470
:104020008033002B16D1434B1B6803F00203002B97
:1040300005D07B681B69012B01D00123BAE13D4902
:104040003C4B1B6823F0F8027B685B69DB00134381
:104050000B603AE07B681B69002B20D0364B0122B5
:104060001A60FDF779F8386108E0FDF775F8024647
:104070003B69D31A022B01D903239BE12D4B1B680B
:1040800003F00203002BF0D02A492A4B1B6823F0CF
:10409000F8027B685B69DB0013430B6015E0264B7D
:1040A00000221A60FDF758F8386108E0FDF754F86F
:1040B00002463B69D31A022B01D903237AE11D4B37
:1040C0001B6803F00203002BF0D17B681B6803F030
:1040D0000803002B3AD07B689B69002B19D0174B43
:1040E00001221A60FDF738F8386108E0FDF734F86E
:1040F00002463B69D31A022B01D903235AE10D4B27
:104100005B6A03F00203002BF0D0012000F0DAFA22
:104110001CE00A4B00221A60FDF71EF838610FE020
:10412000FDF71AF802463B69D31A022B08D903237C
:1041300040E100BF001002400000424280044242C1
:104140009E4B5B6A03F00203002BE9D17B681B687E
:1041500003F00403002B00F0A6800023FB75974BAF
:10416000DB6903F08053002B0DD1944A934BDB693C
:1041700043F08053D361914BDB6903F08053BB6004
:10418000BB680123FB758E4B1B6803F48073002B07
:1041900018D18B4A8A4B1B6843F480731360FCF779
:1041A000DBFF386108E0FCF7D7FF02463B69D31A12
:1041B000642B01D90323FDE0814B1B6803F480735A
:1041C000002BF0D07B68DB68012B06D17B4A7B4B50
:1041D0001B6A43F0010313622DE07B68DB68002B50
:1041E0000CD1764A754B1B6A23F001031362734AA4
:1041F000724B1B6A23F0040313621CE07B68DB68CC
:10420000052B0CD16D4A6D4B1B6A43F004031362FE
:104210006A4A6A4B1B6A43F0010313620BE0674A68
:10422000664B1B6A23F001031362644A634B1B6AEB
:1042300023F0040313627B68DB68002B15D0FCF7C6
:104240008BFF38610AE0FCF787FF02463B69D31A0F
:1042500041F28832934201D90323ABE0574B1B6AEA
:1042600003F00203002BEED014E0FCF775FF386179
:104270000AE0FCF771FF02463B69D31A41F288322B
:10428000934201D9032395E04C4B1B6A03F00203D0
:10429000002BEED1FB7D012B05D1484A474BDB6952
:1042A00023F08053D3617B68DB69002B00F08180B1
:1042B000424B5B6803F00C03082B61D07B68DB6921
:1042C000022B46D13F4B00221A60FCF745FF3861B4
:1042D00008E0FCF741FF02463B69D31A022B01D9E3
:1042E000032367E0354B1B6803F00073002BF0D10C
:1042F0007B681B6AB3F5803F08D130492F4B5B6860
:1043000023F400327B689B6813434B602B482B4B94
:104310005B6823F474127B68196A7B685B6A0B43E1
:1043200013434360274B01221A60FCF715FF3861E5
:1043300008E0FCF711FF02463B69D31A022B01D9B2
:10434000032337E01D4B1B6803F00073002BF0D0F4
:104350002FE01C4B00221A60FCF7FEFE386108E0DB
:10436000FCF7FAFE02463B69D31A022B01D903235C
:1043700020E0124B1B6803F00073002BF0D118E013
:104380007B68DB69012B01D1012313E00B4B5B68D8
:10439000FB60FB6803F480327B681B6A9A4206D19B
:1043A000FB6803F470127B685B6A9A4201D00123B8
:1043B00000E0002318461837BD4680BD00100240BB
:1043C000007000406000424280B584B000AF786069
:1043D00039607B68002B01D10123D0E06A4B1B6858
:1043E00003F007023B689A4210D26749664B1B688C
:1043F00023F007023B6813430B60634B1B6803F019
:1044000007023B689A4201D00123B8E07B681B6831
:1044100003F00203002B20D07B681B6803F0040329
:10442000002B05D0594A594B5B6843F4E063536055
:104430007B681B6803F00803002B05D0534A534BDD
:104440005B6843F4605353605049504B5B6823F002
:10445000F0027B689B6813434B607B681B6803F02A
:104460000103002B40D07B685B68012B07D1474BD1
:104470001B6803F40033002B15D101237FE07B6818
:104480005B68022B07D1414B1B6803F00073002BC4
:1044900009D1012373E03D4B1B6803F00203002B9D
:1044A00001D101236BE03949384B5B6823F00302EB
:1044B0007B685B6813434B60FCF74EFEF8600AE0D4
:1044C000FCF74AFE0246FB68D31A41F28832934257
:1044D00001D9032353E02D4B5B6803F00C027B688A
:1044E0005B689B009A42EBD1274B1B6803F00702E5
:1044F0003B689A4210D92449234B1B6823F00702DA
:104500003B6813430B60204B1B6803F007023B68BA
:104510009A4201D0012332E07B681B6803F0040358
:10452000002B08D01949194B5B6823F4E0627B68C3
:10453000DB6813434B607B681B6803F00803002BA8
:1045400009D01249114B5B6823F460527B681B69E8
:10455000DB0013434B6000F021F801460B4B5B6816
:104560001B0903F00F030A4AD35C21FA03F3094A3B
:104570001360094B1B681846FCF7ACFD0023184676
:104580001037BD4680BD00BF002002400010024031
:10459000549E0008280000200000002090B48AB03B
:1045A00000AF2A4B3C1D0FCB84E80F00284B1B8823
:1045B0003B800023FB610023BB6100237B6200235F
:1045C0007B6100233B62234B5B68FB61FB6903F06B
:1045D0000C03042B02D0082B03D02DE01E4B3B62B2
:1045E0002DE0FB699B0C03F00F0307F12802134435
:1045F00013F8243C7B61FB6903F48033002B13D058
:10460000144B5B685B0C03F0010307F128021344B1
:1046100013F8283CBB617B690F4A02FB03F2BB69BC
:10462000B2FBF3F37B6204E07B690C4A02FB03F309
:104630007B627B6A3B6202E0074B3B6200BF3B6AE6
:1046400018462837BD4690BC704700BF408300081D
:10465000508300080010024000127A0000093D005B
:1046600080B400AF024B1B681846BD4680BC704743
:104670002800002080B500AFFFF7F2FF0146054B90
:104680005B681B0A03F00703034AD35C21FA03F3B8
:10469000184680BD00100240649E000880B500AF3F
:1046A000FFF7DEFF0146054B5B68DB0A03F00703FB
:1046B000034AD35C21FA03F3184680BD0010024080
:1046C000649E000880B485B000AF78600A4B1B6818
:1046D0000A4AA2FB03235B0A7A6802FB03F3FB602E
:1046E00000BFFB685A1EFA60002BF9D100BF1437D7
:1046F000BD4680BC704700BF28000020D34D62102B
:1047000080B586B000AF786000233B610023FB607A
:104710007B681B6803F00103002B7DD00023FB7531
:104720004F4BDB6903F08053002B0DD14C4A4C4BAF
:10473000DB6943F08053D361494BDB6903F080535D
:10474000BB60BB680123FB75464B1B6803F4807399
:10475000002B18D1434A434B1B6843F4807313600A
:10476000FCF7FAFC386108E0FCF7F6FC02463B690E
:10477000D31A642B01D903236DE03A4B1B6803F471
:104780008073002BF0D0364B1B6A03F44073FB6040
:10479000FB68002B2ED07B685B6803F44072FB68DB
:1047A0009A4227D02E4B1B6A23F44073FB602E4B9A
:1047B00001221A602C4B00221A60294AFB681362FE
:1047C000FB6803F00103002B14D0FCF7C5FC386133
:1047D0000AE0FCF7C1FC02463B69D31A41F2883279
:1047E000934201D9032336E01D4B1B6A03F00203F9
:1047F000002BEED01A491A4B1B6A23F440727B68D7
:104800005B6813430B62FB7D012B05D1144A144BEB
:10481000DB6923F08053D3617B681B6803F00203DC
:10482000002B08D00E490E4B5B6823F440427B6896
:104830009B6813434B607B681B6803F01003002BDD
:1048400008D00749064B5B6823F480027B68DB686D
:1048500013434B60002318461837BD4680BD00BF88
:1048600000100240007000404004424290B58DB0FC
:1048700000AF7860554B07F10C040FCB84E80F00B4
:10488000534B1B883B8100237B620023FB62002388
:104890003B620023FB610023BB627B68022B7FD05D
:1048A000102B02D0012B48D08BE04A4B5B68FB6198
:1048B000484B1B6803F08073002B7FD0FB699B0C77
:1048C00003F00F0307F13002134413F8243C3B625A
:1048D000FB6903F48033002B18D03E4B5B685B0C04
:1048E00003F0010307F13002134413F8283C7B6204
:1048F000FB6903F48033002B0DD0374A7B6AB2FB8F
:10490000F3F33A6A02FB03F3FB6204E03B6A334AC7
:1049100002FB03F3FB622F4B5B6803F48003B3F5E8
:10492000800F02D1FB6ABB6248E0FB6A5B002C4A45
:10493000A2FB03235B08BB6240E0264B1B6AFB61C2
:10494000FB6903F44073B3F5807F08D1FB6903F082
:104950000203002B03D04FF40043BB621FE0FB694E
:1049600003F44073B3F5007F09D11A4B5B6A03F07F
:104970000203002B03D049F64043BB620FE0FB6902
:1049800003F44073B3F5407F1AD1124B1B6803F454
:104990000033002B14D04FF22443BB6210E00FE031
:1049A000FFF77CFE02460B4B5B689B0B03F0030397
:1049B00001335B00B2FBF3F3BB6202E000BF00E037
:1049C00000BFBB6A18463437BD4690BD548300080B
:1049D000648300080010024000127A0000093D00C4
:1049E000ABAAAAAA80B584B000AF78600023FB60B0
:1049F0007B68002B01D1012384E07B685B7CDBB208
:104A0000002B05D17B6800221A74786803F01CFA29
:104A10007B6802225A74786800F0F4FA0346002B8F
:104A200004D07B6804225A7401236BE0786800F09C
:104A3000ADFB0346002B04D07B6804225A7401238B
:104A400060E07B681B687A681268526822F007028F
:104A50005A607B689B68002B05D02C4A2B4B1B6B44
:104A600023F0010313632949284BDB6A23F46072A6
:104A70007B689B681343CB627B685B68B3F1FF3F45
:104A800003D07B685B68FB600EE00120FFF7EEFE61
:104A9000F860FB68002B04D17B6804225A74012360
:104AA00030E0FB68013BFB607B681B687A6812683A
:104AB000926822F00F01FA68120C0A439A607B6830
:104AC0001A687B681B68DB681B0C1B04F96889B2D9
:104AD0000B43D360786800F081FB0346002B04D0C1
:104AE0007B6804225A7401230CE07B680022DA738D
:104AF0007B6801225A737B6801229A737B680122CA
:104B00005A74002318461037BD4680BD006C004023
:104B100090B587B000AFF860B9607A6000237B6120
:104B200000233B61FB68002B02D0BB68002B01D146
:104B3000012380E0FB681B7C012B01D102237AE07A
:104B4000FB6801221A74FB6802225A747B68002BEE
:104B500013D1BB681B781A464FF4616303FB02F262
:104B6000BB685B7819460B461B015B1A9B0013441C
:104B7000BA68927813447B611EE0BB681B781846C4
:104B800000F071FB03461A464FF4616303FB02F425
:104B9000BB685B78184600F066FB03461A4613466E
:104BA0001B019B1A9B001C44BB689B78184600F0B5
:104BB0005AFB034623447B617969F86800F07FFA69
:104BC0000346002B07D0FB6804225A74FB680022BE
:104BD0001A7401232FE0FB681B68FA681268526898
:104BE00022F005025A60F86800F090FA38613B69DB
:104BF000B3F1FF3F18D03A697B699A4214D23B69FE
:104C000003F5A83303F5C0733B613969F86800F018
:104C100096FA0346002B07D0FB6804225A74FB68FF
:104C200000221A74012306E0FB6801225A74FB6813
:104C300000221A74002318461C37BD4690BD0000A0
:104C400080B588B000AFF860B9607A600023BB61BE
:104C50000023FB6100237B6100233B61FB68002B89
:104C600002D0BB68002B01D10123B5E0FB681B68B3
:104C70005B6803F00403002B01D00123ACE0F8686B
:104C800000F0EDF9B861BB69554AA2FB0323DB0ACA
:104C90003B61BA69524BA3FB0213DB0A4FF461611B
:104CA00001FB03F3D31A4F4AA2FB03235B09DAB2D9
:104CB000BB685A70BB694A4AA2FB0312D20A4FF47E
:104CC000616101FB02F29A1A464BA3FB02135909D8
:104CD0000B461B015B1A9B00D11ACAB2BB689A70C3
:104CE0003B69172B55D93B693F4AA2FB03231B099C
:104CF0007B6139693C4BA3FB01231A0913465B0016
:104D00001344DB00CA1AD2B2BB681A70F86800F00C
:104D1000FDF9F861FB69B3F1FF3F08D0FA69BB699F
:104D20009A4204D9FA69BB69D31AFB6102E04FF0D9
:104D3000FF33FB617B692D4A02FB03F3BA69D31A87
:104D4000BB61B969F86800F0BAF90346002B01D0DD
:104D5000012341E0FB69B3F1FF3F0CD0FA69BB6965
:104D60001344FB61F969F86800F0E9F90346002B88
:104D70000AD0012330E0F969F86800F0E0F9034651
:104D8000002B01D0012327E07969F86800F088FA48
:104D900003E03B69DAB2BB681A707B68002B1AD05B
:104DA000BB681B78184600F041FA03461A46BB68F8
:104DB0001A70BB685B78184600F038FA03461A464A
:104DC000BB685A70BB689B78184600F02FFA034600
:104DD0001A46BB689A70002318462037BD4680BD2E
:104DE000C5B3A29189888888ABAAAAAA805101007C
:104DF00080B588B000AFF860B9607A600023FB61CD
:104E00000023BB6100237B61FB68002B02D0BB68E1
:104E1000002B01D1012397E0FB681B7C012B01D102
:104E2000022391E0FB6801221A74FB6802225A7483
:104E30007B68002B0CD1BB68DA78FB68DA73BB683F
:104E40005A78FB685A73BB689A78FB689A731AE0C1
:104E5000BB68DB78184600F006FA03461A46FB6882
:104E6000DA73BB685B78184600F0FDF903461A4612
:104E7000FB685A73BB689B78184600F0F4F9034648
:104E80001A46FB689A73FB68DB7B1846FB68597B04
:104E9000FB689B7B1A4600F0DFFA03461A46FB6864
:104EA0001A73FB681A7BBB681A70F86800F0D7F8B1
:104EB000F861FB69264AA2FB0323DB0A7B617B695D
:104EC000182B3AD97B69234AA2FB03231B09224AE8
:104ED00002FB03F3FA69D31AFB61F969F86800F081
:104EE000EEF80346002B07D0FB6804225A74FB68D7
:104EF00000221A74012327E0F86800F007F9B8616E
:104F0000BB69B3F1FF3F18D0BA69FB699A4214D26A
:104F1000BB6903F5A83303F5C073BB61B969F868D1
:104F200000F00DF90346002B07D0FB6804225A74E9
:104F3000FB6800221A74012306E0FB6801225A7400
:104F4000FB6800221A74002318462037BD4680BD36
:104F5000C5B3A291ABAAAAAA8051010080B586B0C0
:104F600000AFF860B9607A6007F1140300210A46C7
:104F70001A800A469A70FB68002B02D0BB68002B8F
:104F800001D101233AE007F1140300221946F86821
:104F9000FFF756FE0346002B01D001232EE0FB68ED
:104FA0001A7BBB681A70FB68DA7BBB68DA70FB6837
:104FB0005A7BBB685A70FB689A7BBB689A707B68A7
:104FC000002B1AD0BB68DB78184600F02FF9034697
:104FD0001A46BB68DA70BB685B78184600F026F9A1
:104FE00003461A46BB685A70BB689B78184600F0A7
:104FF0001DF903461A46BB689A70002318461837F5
:10500000BD4680BD80B584B000AF78600023FB60F2
:105010007B68002B01D101231DE07B681B687A6847
:105020001268526822F008025A60FCF795F8F8609E
:1050300009E0FCF791F80246FB68D31AB3F57A7FD2
:1050400001D9032307E07B681B685B6803F0080352
:10505000002BEED0002318461037BD4680BD80B42B
:1050600087B000AF786000237B8200233B8200235F
:10507000FB8100237B617B681B689B697B827B686B
:105080001B68DB69FB817B681B689B693B827A8AB2
:105090003B8A9A4208D03B8A1A047B681B68DB690A
:1050A0009BB213437B6104E07B8A1A04FB891343A0
:1050B0007B617B6918461C37BD4680BC704780B554
:1050C00084B000AF786039600023FB73786800F02B
:1050D0005DF80346002B02D00123FB7311E07B68CF
:1050E0001B683A68120C9A617B681B683A6892B236
:1050F000DA61786800F072F80346002B01D00123D2
:10510000FB73FB7B18461037BD4680BD80B485B06D
:1051100000AF78600023FB810023BB817B681B68A4
:105120001B6AFB817B681B685B6ABB81FB891A0475
:10513000BB89134318461437BD4680BC704780B501
:1051400084B000AF786039600023FB73786800F0AA
:105150001DF80346002B02D00123FB7311E07B688E
:105160001B683A68120C1A627B681B683A6892B234
:105170005A62786800F032F80346002B01D0012310
:10518000FB73FB7B18461037BD4680BD80B584B0ED
:1051900000AF78600023FB60FBF7DEFFF86009E0FA
:1051A000FBF7DAFF0246FB68D31AB3F57A7F01D921
:1051B00003230FE07B681B685B6803F02003002B70
:1051C000EED07B681B687A681268526842F0100261
:1051D0005A60002318461037BD4680BD80B584B0A4
:1051E00000AF78600023FB607B681B687A681268F8
:1051F000526822F010025A60FBF7AEFFF86009E037
:10520000FBF7AAFF0246FB68D31AB3F57A7F01D9F0
:10521000032307E07B681B685B6803F02003002B17
:10522000EED0002318461037BD4680BD80B485B04F
:1052300000AF0346FB710023FB6005E0FB68013310
:10524000FB60FB790A3BFB71FB79092BF6D8FB6805
:10525000DBB21B01DAB2FB791343DBB21846143719
:10526000BD4680BC704780B485B000AF0346FB717B
:105270000023FB60FB791B09DBB21A4613469B0037
:1052800013445B00FB60FB7903F00F03DAB2FB68A9
:10529000DBB21344DBB218461437BD4680BC7047FE
:1052A00080B586B000AF7860396000237B61002351
:1052B0003B610023FB600023BB607B68DB7B7B6181
:1052C0007B685B7B3B617B689B7BFB600023BB60F7
:1052D0006FE03B69012B11D03B69032B0ED03B697A
:1052E000052B0BD03B69072B08D03B69082B05D059
:1052F0003B690A2B02D03B690C2B17D1FB681E2B94
:1053000003D8FB680133FB6050E03B690C2B05D0F0
:105310003B6901333B610123FB6047E001233B61B3
:105320000123FB607B6901337B613FE03B69042B18
:1053300008D03B69062B05D03B69092B02D03B699D
:105340000B2B0CD1FB681D2B03D8FB680133FB60D2
:105350002CE03B6901333B610123FB6026E03B69A4
:10536000022B23D1FB681B2B03D8FB680133FB60A6
:105370001CE0FB681C2B11D17B699BB2184600F026
:1053800039F80346002B03D0FB680133FB600DE0C6
:105390003B6901333B610123FB6007E0FB681D2B88
:1053A00004D13B6901333B610123FB60BB680133DE
:1053B000BB60BA683B689A428BD37B69DAB27B6880
:1053C000DA733B69DAB27B685A73FB68DAB27B68DE
:1053D0009A733B69DBB2FA68D2B21946786900F079
:1053E0003BF803461A467B681A7300BF1837BD4660
:1053F00080BD000080B483B000AF0346FB80FB8813
:1054000003F003039BB2002B01D000231DE0FB88B7
:10541000104AA2FB03125209642101FB02F29B1AFB
:105420009BB2002B01D001230FE0FB88094AA2FBAD
:105430000312D2094FF4C87101FB02F29B1A9BB20E
:10544000002B01D1012300E0002318460C37BD4694
:1054500080BC70471F85EB5180B485B000AF786089
:105460000B46FB701346BB700023BB600023FB6040
:105470007B6803F5FA63BB60FB78022B2DD8FA78C2
:1054800013465B001344DB009B1A2C4AA2FB032348
:105490005A08BB781A44BB681A44BB68013B9B0896
:1054A0001A44BB68013B2649A1FB03135B09D21ACE
:1054B000BB68013B2249A1FB0313DB0913441A1DFE
:1054C000204BA3FB0213D11A49080B4499080B4641
:1054D000DB005B1AD31AFB6029E0FA7813465B0005
:1054E0001344DB009B1A154AA2FB03235A08BB781E
:1054F0001A44BB681A44BB689B081A44BB6810492D
:10550000A1FB03135B09D21ABB680D49A1FB03136E
:10551000DB0913449A1C0B4BA3FB0213D11A490855
:105520000B4499080B46DB005B1AD31AFB60FB683F
:10553000DBB218461437BD4680BC7047398EE3385D
:105540001F85EB512549922480B582B000AF786069
:105550007B681B681B6803F00103002B24D07B6869
:105560001B685B6803F00103002B1DD07B681B6880
:105570005B6803F00403002B0BD0786800F021F87F
:105580007B681B686FF004025A607B6804225A74BF
:1055900005E0786800F00CF87B6801225A747B689B
:1055A0001B686FF001025A6000BF0837BD4680BD1E
:1055B00080B483B000AF786000BF0C37BD4680BCBC
:1055C000704780B483B000AF786000BF0C37BD4631
:1055D00080BC704780B487B000AFF860B9607A6073
:1055E00000237B61074B7B61BB689B007A69134496
:1055F0007B617B697A6892B21A6000BF1C37BD4636
:1056000080BC7047006C004080B485B000AF78600B
:1056100039600023FB600023BB60084BFB603B68E4
:105620009B00FA681344FB60FB681B689BB2BB607D
:10563000BB6818461437BD4680BC7047006C0040FC
:1056400080B582B000AF78607B68002B01D1012368
:1056500041E07B6893F83D30DBB2002B06D17B68DC
:10566000002283F83C20786802F01AFC7B68022252
:1056700083F83D207B681A687B680433194610461E
:1056800000F06CFA7B68012283F846207B680122D7
:1056900083F83E207B68012283F83F207B6801224B
:1056A00083F840207B68012283F841207B68012237
:1056B00083F842207B68012283F843207B68012223
:1056C00083F844207B68012283F845207B6801220F
:1056D00083F83D20002318460837BD4680BD0000F2
:1056E00080B485B000AF78607B6893F83D30DBB262
:1056F000012B01D001233AE07B68022283F83D2090
:105700007B681B687A681268D26842F00102DA602E
:105710007B681B68184A93420ED07B681B68B3F104
:10572000804F09D07B681B68144A934204D07B6881
:105730001B68134A934211D17B681B689B6803F076
:105740000703FB60FB68062B10D07B681B687A6838
:105750001268126842F001021A6007E07B681B6859
:105760007A681268126842F001021A600023184633
:105770001437BD4680BC7047002C01400004004037
:105780000008004080B582B000AF78607B681B687D
:105790001B6903F00203022B22D17B681B68DB68C4
:1057A00003F00203022B1BD17B681B686FF002021F
:1057B0001A617B6801221A777B681B689B6903F07A
:1057C0000303002B03D0786800F0ADF905E078689A
:1057D00000F0A0F9786800F0AFF97B6800221A7732
:1057E0007B681B681B6903F00403042B22D17B68D0
:1057F0001B68DB6803F00403042B1BD17B681B6868
:105800006FF004021A617B6802221A777B681B68BA
:105810009B6903F44073002B03D0786800F083F990
:1058200005E0786800F076F9786800F085F97B6823
:1058300000221A777B681B681B6903F00803082B9A
:1058400022D17B681B68DB6803F00803082B1BD19F
:105850007B681B686FF008021A617B6804221A7764
:105860007B681B68DB6903F00303002B03D07868B7
:1058700000F059F905E0786800F04CF9786800F01C
:105880005BF97B6800221A777B681B681B6903F051
:105890001003102B22D17B681B68DB6803F0100318
:1058A000102B1BD17B681B686FF010021A617B689C
:1058B00008221A777B681B68DB6903F44073002BAE
:1058C00003D0786800F02FF905E0786800F022F93D
:1058D000786800F031F97B6800221A777B681B68D2
:1058E0001B6903F00103012B0ED17B681B68DB6889
:1058F00003F00103012B07D17B681B686FF00102E5
:105900001A61786800F0FDF87B681B681B6903F07A
:105910008003802B0ED17B681B68DB6803F080035B
:10592000802B07D17B681B686FF080021A61786852
:1059300000F073FA7B681B681B6903F04003402B7F
:105940000ED17B681B68DB6803F04003402B07D156
:105950007B681B686FF040021A61786800F0F5F808
:105960007B681B681B6903F02003202B0ED17B682A
:105970001B68DB6803F02003202B07D17B681B68C2
:105980006FF020021A61786800F03EFA00BF083715
:10599000BD4680BD80B584B000AF786039607B685B
:1059A00093F83C30012B01D10223A6E07B68012251
:1059B00083F83C207B68022283F83D207B681B68CB
:1059C0009B68FB60FB6823F07703FB60FB6823F4B4
:1059D0007F43FB607B681B68FA689A603B681B68C2
:1059E000402B67D0402B0BD8102B73D0102B02D834
:1059F000002B6FD078E0202B6CD0302B6AD073E076
:105A0000702B0DD0702B04D8502B33D0602B41D08D
:105A10006AE0B3F5805F66D0B3F5005F17D063E04E
:105A20007B6818683B6899683B685A683B68DB6824
:105A300000F06DF97B681B689B68FB60FB6843F0B6
:105A40007703FB607B681B68FA689A604CE07B68B0
:105A500018683B6899683B685A683B68DB6800F0E7
:105A600056F97B681B687A681268926842F4804233
:105A70009A6039E07B6818683B6859683B68DB6866
:105A80001A4600F0CDF87B681B685021184600F0DC
:105A900024F929E07B6818683B6859683B68DB6833
:105AA0001A4600F0EBF87B681B686021184600F08E
:105AB00014F919E07B6818683B6859683B68DB6833
:105AC0001A4600F0ADF87B681B684021184600F0CC
:105AD00004F909E07B681A683B681B6819461046A0
